:1000500078696E206368616F2035303020616520DB
:040060006E68650061
:10006400C29FD29E758920758DFDD28ED299D29C65
:010074002269
:06009700A298E433FF22F1
:05009D00C298AF99229A
:08008F003099FDC2998F9922FE
:060030008B088A09890A11
:10003600E4FEAB08AA09A90A8E82758300120003A2
:09004600FF600612008F0E80E934
:01004F00228E
:0E0075001200647BFF7A00795012003080FE8A
:0300000002008378
:0C008300787FE4F6D8FD75810A02007554
:10000300BB010CE58229F582E5833AF583E02250B2
:1000130006E92582F8E622BBFE06E92582F8E222FC
:0D002300E58229F582E5833AF583E4932216
:00000001FF
